:1000000003308A00CD2B0000FF00030E8301A10006
:100010007F08A0000A08A7008A01A00E0408A20019
:100020007708A3007808A4007908A5007A08A6003C
:10003000831383128B1E1E280B194C288C308400CE
:10004000801E24288C1A5B288C308400001E2A28ED
:100050000C1AD028220884002308F7002408F8008E
:100060002508F9002608FA0027088A00210E8300D7
:10007000FF0E7F0E09000A108A100A1182075434FD
:10008000613473344B3433342034343430343034CA
:100090006D3473340A340D3404308506B60AB70A59
:1000A00069083702031D5628B80AB70106308100D7
:1000B0000B118A112A2898185F28181D6528181214
:1000C00018161A08B200B301CD283308B30A283E27
:1000D000840083131A08800033080A3C0319B30113
:1000E0002808653C031DA728520BA628530B7A2825
:1000F000BD18A6285308023C031D80283D19A628D8
:100100005308033C031D8628BD19A6285308043C48
:10011000031D8C283D1AA6285308053C031D922870
:10012000BD1AA6285308063C031D98283D1BA62887
:100130005308073C031D9E28BD1BA6285308083CF6
:10014000031DA4283E18A6280130D500A8012808C0
:10015000753C031DCD280230EF006F0BB028BB1497
:100160006F08023C03193B156F08033C0319BB15CC
:100170006F08043C03193B166F08053C0319BB16B6
:100180006F08063C03193B176F08073C0319BB17A0
:100190006F08083C03193C14A8018C128A112A2804
:1001A0003408B40A3B20F800990034080D3C031DC4
:1001B000DD28B4018316981283120C128A112A28A2
:1001C00083168111011081100115811206308312EE
:1001D00081001D2C8B161E2C8501860183160511AE
:1001E0000510061086110612851105128612851457
:1001F000061383120611861483168613831286173C
:100200001F2C19308316990083129817831618151E
:100210001812831218160B1783168C1698120C16C8
:100220008312202C351085183514212C8B17222C85
:100230008B136A0B1C29BB146A08023C03193B157B
:100240006A08033C0319BB156A08043C03193B16F2
:100250006A08053C0319BB166A08063C03193B17DC
:100260006A08073C0319BB176A08083C03193C14C9
:100270008B1708006D08F8016C02031842296C08FE
:10028000F7004E29F7010830EE00EC0DF70D6D0870
:1002900077020318F700F80DEE0B4529080001302E
:1002A0008506851856290230EA0018213F083602D3
:1002B000EB00EC005608ED003A217808C900C908A7
:1002C000031964290130D6075608023C031CB914EF
:1002D00008000130860640083602EB00EC005708A3
:1002E000ED003A217808CA00CA08031979290130BB
:1002F000D7075708043C031C3915080083169816C5
:10030000831241083602EB00EC005808ED003A2158
:100310007808CB00CB0803198F290130D80758087B
:10032000323C031CB91508005208F8000800D20836
:10033000031D0A2A6A0B9E29BD180A2A6A08023C74
:10034000031DA4293D190A2A6A08033C031DAA2992
:10035000BD190A2A6A08043C031DB0293D1A0A2A5D
:100360006A08053C031DB629BD1A0A2A6A08063C1C
:10037000031DBC293D1B0A2A6A08073C031DC2292C
:10038000BD1B0A2A6A08083C031DC8293E180A2A10
:100390000130D2006A08D3006A0BD2295608D40073
:1003A0000130D6006A08023C031DDA295708D40040
:1003B0000130D7006A08033C031DE2295808D40025
:1003C0000130D8006A08043C031DEA295908D4000A
:1003D0000130D9006A08053C031DF2295A08D400EF
:1003E0000130DA006A08063C031DFA295B08D400D4
:1003F0000130DB006A08073C031D022A5C08D400B8
:100400000130DC006A08083C031D0A2A5D08D4009C
:100410000130DD000800520B3E2A530B112A54080C
:10042000D6005308023C031D172A5408D70053086E
:10043000033C031D1D2A5408D8005308043C031D27
:10044000232A5408D9005308053C031D292A5408BF
:10045000DA005308063C031D2F2A5408DB0053081A
:10046000073C031D352A5408DC005308083C031DD3
:100470003B2A5408DD00D201D301D40108008518BD
:10048000552A351C552A351085183514083086062E
:100490009421F808031D502A0330EA009721512ABD
:1004A0000B220630EA001821582A35108518351419
:1004B00042083602EB00EC005908ED003A217808BA
:1004C000CC00CC080319662A0130D9075908083C2A
:1004D000031C391608001030860643083802EB006A
:1004E000EC005A08ED003A217808CD00CD08031938
:1004F0007B2A0130DA075A083C3C031CB916080075
:100500006A08023C031D902A831681110110811490
:1005100001118112063083128100F430E900BF2AF4
:100520006A08043C031DA02A83168111011481145A
:1005300001118112063083128100FA30E900BF2ACE
:100540006A08083C031DB02A83168111011081102E
:10055000011581120630831281007D30E900BF2A27
:100560006A08323C031DBF2A8316811101148114CD
:10057000011581123D30831281001430E90008001A
:100580002808613C031DC62A8515C72A851128083D
:10059000703C031DD32A9421F808031DD32A01308F
:1005A000EA009721A80128086E3C031DDC2A94214B
:1005B000780BDC2A0B22A8012808323C031DE42A10
:1005C0000230EA008022A8012808343C031DEC2AEE
:1005D0000430EA008022A8012808383C031DF42AD0
:1005E0000830EA008022A8012808353C031DFC2AB7
:1005F0003230EA008022A80144083602EB00EC0009
:100600005B08ED003A217808CE00CE0803190A2BCA
:100610000130DB075B08033C031C3917080010306E
:1006200085060830B90645083802EB00EC005C0886
:10063000ED003A217808CF00CF080319212B0130B3
:10064000DC075C08783C031CB91708000130DD07A3
:10065000203086065D08643C0318302B0130DD0035
:1006600046083602EB00EC005D08ED003A21780800
:10067000D0005D08643C031C3A1408006008043C88
:100680000318452B8613B914BD146108043C0318E4
:100690004C2B861339153D156208043C0318532B67
:1006A0008613B915BD156308043C03185A2B86132D
:1006B00039163D166408043C0318612B8613B916DD
:1006C000BD166508043C0318682B861339173D17BF
:1006D0006608043C03186F2B8613B917BD1767080B
:1006E000043C0318762B86133A143E14D92CB91CFB
:1006F0007F2BBD187F2B0130D602B910E00A391DBF
:10070000872B3D19872B0130D7023911E10AB91D1A
:100710008F2BBD198F2B0130D802B911E20A391E77
:10072000972B3D1A972B0130D9023912E30AB91ED3
:100730009F2BBD1A9F2B0130DA02B912E40A391F30
:10074000A72B3D1BA72B0130DB023913E50AB91F8C
:10075000AF2BBD1BAF2B0130DC02B913E60A3A1CEC
:10076000B72B3E18B72B0130DD023A10E70ABA1C4E
:10077000BD2B0130DE02BA10E80A47083602EB0052
:10078000EC005E08ED003A217808D1005E08013CDB
:100790000318CC2B8A010028E62C03081F3983009C
:1007A000193083169900A630980090308312980073
:1007B000B201B301B4013510B601B701B801BA01F5
:1007C000B901BC01BB01BE01BD01BF01C001C10136
:1007D000C201C301C401C501C601C701C801C901E5
:1007E000CA01CB01CC01CD01CE01CF01D001D10195
:1007F000D201D301D401D5010230D6000430D70094
:100800003230D8000830D9003C30DA000330DB0049
:100810007830DC000130DD00DE00DF00E001E101C6
:10082000E201E301E401E501E601E701E8017D30D1
:10083000E90007309F008313E028EA28EC2801290B
:100840001229162940308606BB08031D2A2CBC0835
:100850000319822CBB1C352CB918352CBD18352C2E
:10086000BB103608BF00C9014F213B1D402C391970
:10087000402C3D19402C3B113608C000CA016921AB
:10088000BB1D4B2CB9194B2CBD194B2CBB11360879
:10089000C100CB017E213B1E562C391A562C3D1A25
:1008A000562C3B123608C200CC013F22BB1E612CE5
:1008B000B91A612CBD1A612CBB123808C300CD01D6
:1008C0006B223B1F6C2C391B6C2C3D1B6C2C3B137F
:1008D0003608C400CE01C022BB1F772CB91B772C71
:1008E000BD1B772CBB133808C500CF010F233C1C60
:1008F000822C3A18822C3E18822C3C103608C600F6
:10090000D0012623D5080319CF2CD3080319CF2CE7
:10091000D501530B902CBD18902C3608BF004F21E9
:100920005308023C031D992C3D19992C3608C00030
:1009300069215308033C031DA22CBD19A22C3608C3
:10094000C1007E215308043C031DAB2C3D1AAB2C87
:100950003608C2003F225308053C031DB42CBD1AC3
:10096000B42C3608C3006B225308063C031DBD2C73
:100970003D1BBD2C3608C400C0225308073C031D94
:10098000C62CBD1BC62C3608C5000F235308083CD7
:10099000031DCF2C3E18CF2C3608C600262348084E
:1009A00036025F020319D62C0318D92C3608C8006A
:1009B0003E2B470836025E020319E02C0318E62C92
:1009C000BA18E62C3608C700D101772B3F0836024B
:1009D00056020319ED2C0318F32CB918F32C360822
:1009E000BF00C9014F214008360257020319FA2CF3
:1009F0000318002D3919002D3608C000CA016921DD
:100A00004108360258020319072D03180D2DB91994
:100A10000D2D3608C100CB017E2142083602590255
:100A20000319142D03181A2D391A1A2D3608C2006D
:100A3000CC013F22430838025A020319212D031822
:100A4000272DB91A272D3808C300CD016B22440881
:100A500036025B0203192E2D0318342D391B342D59
:100A60003608C400CE01C022450838025C020319D2
:100A70003B2D0318412DB91B412D3808C500CF016E
:100A80000F23460836025D020319482D03184E2D28
:100A90003A184E2D3608C600D0012623222C6300BA
:02400E00613F10
:00000001FF
;PIC16F628A
;CRC=B481  CREATED="25-jun-26 09:04"
