:1000000003308A00592B0000FF00030E8301A1007A
:100010007F08A0000A08A7008A01A00E0408A20019
:100020007708A3007808A4007908A5007A08A6003C
:10003000831383128B1E1E280B194C288C308400CE
:10004000801E24288C1A5B288C308400001E2A28ED
:100050000C1AA228220884002308F7002408F800BC
:100060002508F9002608FA0027088A00210E8300D7
:10007000FF0E7F0E09000A108A100A1182075434FD
:10008000613473344B3433342034343430343034CA
:100090006D3473340A340D3404308506B60AB70A59
:1000A00067083702031D5628B80AB70106308100D9
:1000B0000B118A112A2898185F28181D6528181214
:1000C00018161A08B200B3019F283308B30A283E55
:1000D000840083131A08800033080A3C0319B30113
:1000E0002808653C031D7928500B78280130D3007F
:1000F000A8012808753C031D9F280230ED006D0BF8
:100100008228BB146D08023C03193B156D08033CA3
:100110000319BB156D08043C03193B166D08053C1B
:100120000319BB166D08063C03193B176D08073C05
:100130000319BB176D08083C03193C14A8018C1265
:100140008A112A283408B40A3B20F80099003408A0
:100150000D3C031DAF28B4018316981283120C12B4
:100160008A112A288316811101108110011581122C
:10017000063083128100A72B8B16A82B85018601E0
:100180008316051105100610861106128511051239
:10019000861285140613831206118614831686139D
:1001A00083128617A92B193083169900831298178A
:1001B000831618151812831218160B1783168C162F
:1001C00098120C168312AA2B351085183514AB2BF8
:1001D0008B17AC2B8B13680BEE28BB146808023C02
:1001E00003193B156808033C0319BB156808043C58
:1001F00003193B166808053C0319BB166808063C42
:1002000003193B176808073C0319BB176808083C2B
:1002100003193C148B1708006B08F8016A020318D5
:1002200014296A08F7002029F7010830EC00EA0DCC
:10023000F70D6B0877020318F700F80DEC0B172980
:10024000080001308506851828290230E800EA20D8
:100250003D083602E900EA005408EB000C2178085A
:10026000C700C708031936290130D4075408023CD7
:10027000031CB9140800013086063E083602E90066
:10028000EA005508EB000C217808C800C8080319DB
:100290004B290130D5075508043C031C39150800CB
:1002A0008316981683123F083602E900EA005608C2
:1002B000EB000C217808C900C90803196129013035
:1002C000D6075608323C031CB91508005008F80040
:1002D0000800D008031DAE290130D0006808D10005
:1002E000680B76295408D2000130D4006808023C1B
:1002F000031D7E295508D2000130D5006808033C53
:10030000031D86295608D2000130D6006808043C37
:10031000031D8E295708D2000130D7006808053C1C
:10032000031D96295808D2000130D8006808063C01
:10033000031D9E295908D2000130D9006808073CE6
:10034000031DA6295A08D2000130DA006808083CCB
:10035000031DAE295B08D2000130DB000800500B02
:10036000E229510BB5295208D4005108023C031D63
:10037000BB295208D5005108033C031DC12952086E
:10038000D6005108043C031DC7295208D700510864
:10039000053C031DCD295208D8005108063C031D19
:1003A000D3295208D9005108073C031DD929520806
:1003B000DA005108083C031DDF295208DB00D00198
:1003C000D101D20108008518F929351CF929351009
:1003D00085183514083086066621F808031DF429AF
:1003E0000330E8006921F529AF210630E800EA2052
:1003F000FC2935108518351440083602E900EA005A
:100400005708EB000C217808CA00CA0803190A2A09
:100410000130D7075708083C031C39160800103074
:10042000860641083802E900EA005808EB000C2172
:100430007808CB00CB0803191F2A0130D8075808C9
:100440003C3C031CB91608006808023C031D342A12
:10045000831681110110811401118112063083125B
:100460008100F430E700632A6808043C031D442A35
:100470008316811101148114011181120630831237
:100480008100FA30E700632A6808083C031D542AFB
:10049000831681110110811001158112063083121B
:1004A00081007D30E700632A6808323C031D632A1F
:1004B0008316811101148114011581123D308312BC
:1004C00081001430E70008002808613C031D6A2AF7
:1004D00085156B2A85112808703C031D772A662133
:1004E000F808031D772A0130E8006921A8012808CF
:1004F0006E3C031D802A6621780B802AAF21A8015B
:100500002808323C031D882A0230E8002422A80172
:100510002808343C031D902A0430E8002422A80156
:100520002808383C031D982A0830E8002422A80136
:100530002808353C031DA02A3230E8002422A801F7
:1005400042083602E900EA005908EB000C2178085D
:10055000CC00CC080319AE2A0130D9075908033C56
:10056000031C39170800103085060830B906430807
:100570003802E900EA005A08EB000C217808CD00A7
:10058000CD080319C52A0130DA075A08783C031C44
:10059000B91708000130DB07203086065B08643C91
:1005A0000318D42A0130DB0044083602E900EA00CF
:1005B0005B08EB000C217808CE005B08643C031C50
:1005C0003A1408005E08053C031DE82A8613B91496
:1005D0005F08053C031DEE2A861339156008053CAB
:1005E000031DF42A8613B9156108053C031DFA2A78
:1005F000861339166208053C031D002B8613B916B5
:100600006308053C031D062B861339176408053C57
:10061000031D0C2B8613B9176508053C031D122B0F
:1006200086133A14432CB91C192B0130D402B9108B
:10063000DE0A391D1F2B0130D5023911DF0AB91D21
:10064000252B0130D602B911E00A391E2B2B0130BF
:10065000D7023912E10AB91E312B0130D802B91282
:10066000E20A391F372B0130D9023913E30AB91FC7
:100670003D2B0130DA02B913E40A3A1C432B013056
:10068000DB023A10E50ABA1C492B0130DC02BA1031
:10069000E60A45083602E900EA005C08EB000C2196
:1006A0007808CF005C08013C0318582B8A01002809
:1006B000502C03081F398300193083169900A63087
:1006C0009800903083129800B201B301B401351044
:1006D000B601B701B801BA01B901BC01BB01BD0146
:1006E000BE01BF01C001C101C201C301C401C501F6
:1006F000C601C701C801C901CA01CB01CC01CD01A6
:10070000CE01CF01D001D101D201D3010230D400FA
:100710000430D5003230D6000830D7003C30D80045
:100720000330D9007830DA000130DB00DC00DD0076
:10073000DE01DF01E001E101E201E301E401E501A5
:10074000E6017D30E70007309F008313B228BC2804
:10075000BE28D328E428E82840308606BB08031DBD
:10076000B42BBC080319FC2BBB1CBD2BB918BD2B2B
:10077000BB103608BD00C70121213B1DC62B39190E
:10078000C62B3B113608BE00C8013B21BB1DCF2B39
:10079000B919CF2BBB113608BF00C90150213B1E30
:1007A000D82B391AD82B3B123608C000CA01E321D6
:1007B000BB1EE12BB91AE12BBB123808C100CB01DB
:1007C0000F223B1FEA2B391BEA2B3B133608C200D2
:1007D000CC016422BB1FF32BB91BF32BBB133808CE
:1007E000C300CD01B3223C1CFC2B3A18FC2B3C105F
:1007F0003608C400CE01CA22D3080319392CD10807
:100800000319392CD301510B082C3608BD002121C6
:100810005108023C031D0F2C3608BE003B21510835
:10082000033C031D162C3608BF0050215108043C20
:10083000031D1D2C3608C000E3215108053C031D93
:10084000242C3608C1000F225108063C031D2B2C16
:100850003608C20064225108073C031D322C3608BA
:10086000C300B3225108083C031D392C3608C400CC
:10087000CA22460836025D020319402C0318432C95
:100880003608C600E22A450836025C0203194A2CE3
:100890000318502CBA18502C3608C500CF01132B62
:1008A0003D08360254020319572C03185D2CB91861
:1008B0005D2C3608BD00C70121213E0836025502D5
:1008C0000319642C03186A2C39196A2C3608BE00E7
:1008D000C8013B213F08360256020319712C031848
:1008E000772CB919772C3608BF00C9015021400870
:1008F0003602570203197E2C0318842C391A842CD3
:100900003608C000CA01E321410838025802031921
:100910008B2C0318912CB91A912C3808C100CB01EB
:100920000F224208360259020319982C03189E2CF4
:10093000391B9E2C3608C200CC01642243083802C1
:100940005A020319A52C0318AB2CB91BAB2C380881
:10095000C300CD01B322440836025B020319B22C56
:100960000318B82C3A18B82C3608C400CE01CA2295
:04097000AC2B630049
:02400E00613F10
:00000001FF
;PIC16F628A
;CRC=5102  CREATED="22-jun-26 14:37"
